:100000000C94C0000C94DD000C94DD000C94DD0019
:100010000C94DD000C94DD000C94DD000C940301C5
:100020000C94DD000C94DD000C94DD000C94DD00DC
:100030000C94DD000C94DD000C94DD000C94DD00CC
:100040000C94DD000C94DD000C94DD000C94DD00BC
:100050000C94DD000C94DD000C94DD000C94DD00AC
:100060000C94DD000C94DD0000000000070C00047F
:100070000700030700050700040B00030A00050A38
:10008000090009000A000A000B000B000C000D001B
:100090000E000E000F0010001100120013001400DB
:1000A0001600170018001A001B001D001F0020007A
:1000B00022002400260029002B002E0030003300EF
:1000C00036003A003D004100450049004D00520015
:1000D00056005C00610067006D0073007A008100CB
:1000E000890091009A00A300AD00B700C200CE00C5
:1000F000DA00E700F4000301120123013401460194
:100100005A016E0184019B01B301CD01E901060290
:100110002502450268028C02B302DC0208033603A2
:1001200067039B03D2030C0449048B04D004190514
:100130006705B90510066C06CE063507A307170834
:10014000930815099F09320ACD0A720B200CD80CAE
:100150009C0D6B0E460F2F1025112A123F136414AD
:100160009A15E3163F18B119381BD61C8D1E5E2058
:100170004B2255247E26C828342BC62D7F30613370
:1001800011241FBECFEFD8E0DEBFCDBF11E0A0E04D
:10019000B1E0EEE5F7E002C005900D92A831B1079D
:1001A000D9F721E0A8E1B1E001C01D92A335B20763
:1001B000E1F70E940F020C946C030C940000209154
:1001C0002D01EEE2F1E090E02917E1F031913813D2
:1001D00017C0492F50E0BA016F5F7F4F26171706EF
:1001E00059F054F0625D7E4FFB018081425D5E4FAD
:1001F000FA0180839F5FEDCF215020932D01089558
:100200009F5FE2CF08951F920F920FB60F921124B5
:100210002F933F934F935F938F939F932091380138
:10022000309139018091440190914501280F391F87
:100230003093450120934401409102015091030104
:1002400081E02417350708F080E020913A013091D1
:100250003B014091460150914701240F351F3093D7
:100260004701209346014091040150910501982FC8
:100270002417350718F491E0980F826020913C0113
:1002800030913D014091480150914901240F351FA3
:100290003093490120934801409106015091070194
:1002A0002417350710F484609F5F20913E01309140
:1002B0003F0140914A0150914B01240F351F30936B
:1002C0004B0120934A0140910801509109012417E4
:1002D000350710F488609F5F209140013091410103
:1002E00040914C0150914D01240F351F30934D0129
:1002F00020934C0140910A0150910B0124173507BE
:1003000010F480619F5F2091420130914301409140
:100310004E0150914F01240F351F30934F01209310
:100320004E0140910C0150910D012417350710F436
:1003300080629F5F20913601309137014AE2949F9D
:10034000200D311D1124A9014427452B09F080649B
:10035000332730933701209336012A988EBD0DB490
:1003600007FEFDCF2A9A9F918F915F914F913F9108
:100370002F910F900FBE0F901F901895259A239ADA
:100380002498229A2A9A229A2A9A8DB58E7F8DBD18
:100390008DB581608DBD80E58CBD0895F8940E9477
:1003A000BE01EAE7F0E08081876080838081806819
:1003B0008083109229018091000180937C008081CC
:1003C0008064808387E08093280180E68093000129
:1003D000289A5A9A5B9A8AB1806F8AB980E591E02F
:1003E0009093520180935101E1ECF0E0108286E09D
:1003F0008093C2008FE190E09093C5008093C40089
:1004000088E1808382E08093B00091E09093B10016
:100410009FEF9093B3008093700078940895A5E0C7
:10042000B0E0E5E1F2E00C94910384B714BE809152
:100430006000886180936000109260000E94CE018D
:1004400080917A0086FDFCCF8091290190917800FF
:1004500020917900E82FF0E0EE0FFF1FE85EFE4FDD
:10046000322F292F318320838F5F80932901909130
:100470002801891710F010922901809129018770B5
:1004800090910001892B80937C0080917A00806498
:1004900080937A0041E149838091C00087FF42C088
:1004A0008981815089838823E9F19091C600983F22
:1004B00098F797FF05C090932C0110922A01ECCF7A
:1004C00080912C01882341F320912A01211109C038
:1004D00090932B01807E803CF9F281E080932A0189
:1004E000DBCF282F207F10922A018F70203909F04E
:1004F000E4C0992309F4DAC08111CECF90912B0189
:100500009B83892F0E94DF00E0912D01E83020F6C7
:1005100081E08E0F80932D01F0E0E25DFE4FAB8114
:10052000A083BACF40902D0130900101442039F0D2
:10053000E42DF0E0E35DFE4F308030920101A090A9
:100540001D01B12C66246A94712C6A187B0805E0A1
:10055000759467940A95E1F7509019015094852D90
:10056000B0E85B1608F480E880588B83212C662065
:1005700011F0B4EF2B2EC301880F991F680E791E5E
:10058000AEE0CA2EA1E0DA2EE4E1F1E0FA83E983DD
:100590001D821C82F301E859FF4F8C819D81E80F79
:1005A000F91F9490930CD6014D916D01E92D97FCA4
:1005B000E0E0EE0FFF0BE058FF4FE590F490BB81B9
:1005C0002B2F30E0D7010E946F03A42F440FBB0BE9
:1005D0009B01AC010E948903EFE095958795779583
:1005E0006795EA95D1F7E60EF71E0C811D810D5F28
:1005F0001F4FE22DE90DE7FDE0E0EE0FFF0BE058A5
:10060000FF4F85909490252D30E0D4010E946F0318
:100610009B01AC01F601A2810A2E000CBB0B0E94CB
:1006200089032FE095958795779567952A95D1F75A
:10063000680D791DA981BA81ED91BA83A983F0E093
:10064000EE0FFF1FE85EFE4F2181F8948C819D81A3
:10065000880F991FFC01E85CFE4FF182E082000FD9
:10066000111FF801E85CFE4F718360834420D9F0CC
:100670002095B2EC2B9F90011124315E8E5F9E4F2E
:10068000FC01318320830E5F1E4FD80111963C93ED
:100690002E937894EC81FD813196FD83EC83339722
:1006A00009F078CFCDCE30E020E0E8CF8111F4CE54
:1006B00080912B010E94DF00EFCE2038B9F3203B60
:1006C00009F0EACE80912B018B3709F0E5CE91112C
:1006D000E3CE10922D01E0CEF8940C94AD03A29FCE
:1006E000B001B39FC001A39F700D811D1124911D06
:1006F000B29F700D811D1124911D08950E946F03FA
:10070000A59F900DB49F900DA49F800D911D112465
:100710000895B7FF0C947E030E947E03821B930B07
:1007200008952F923F924F925F926F927F928F9295
:100730009F92AF92BF92CF92DF92EF92FF920F9370
:100740001F93CF93DF93CDB7DEB7CA1BDB0B0FB67A
:0E075000F894DEBF0FBECDBF0994F894FFCF22
:10075E00403C008000800080008000800080FF010F
:08076E00FE02FD030304050077
:00000001FF
