:100000000C94B4000C94D1000C94D1000C94D10049
:100010000C94D1000C94D1000C94D1000C94D3001A
:100020000C94D1000C94D1000C94D1000C94D1000C
:100030000C94D1000C94D1000C94D1000C94D100FC
:100040000C94D1000C94D1000C94D1000C94D100EC
:100050000C94D1000C94D1000C94D1000C94D100DC
:100060000C94D1000C94D100090009000A000A0088
:100070000B000B000C000D000E000E000F00100016
:1000800011001200130014001600170018001A00C7
:100090001B001D001F002000220024002600290054
:1000A0002B002E003000330036003A003D004100A6
:1000B000450049004D00520056005C006100670099
:1000C0006D0073007A008100890091009A00A300FE
:1000D000AD00B700C200CE00DA00E700F400030173
:1000E00012012301340146015A016E0184019B0172
:1000F000B301CD01E90106022502450268028C0226
:10010000B302DC020803360367039B03D2030C042B
:1001100049048B04D00419056705B90510066C065F
:10012000CE063507A3071708930815099F09320A59
:10013000CD0A720B200CD80C9C0D6B0E460F2F10A5
:1001400025112A123F1364149A15E3163F18B119AA
:10015000381BD61C8D1E5E204B2255247E26C828B7
:10016000342BC62D7F30613311241FBECFEFD8E072
:10017000DEBFCDBF11E0A0E0B1E0E2EFF6E002C0EB
:1001800005900D92AE30B107D9F721E0AEE0B1E0B5
:1001900001C01D92A435B207E1F70E94DF010C9463
:1001A00040030C9400001F920F920FB60F9211247F
:1001B0002F933F934F935F938F939F932091390198
:1001C00030913A018091450190914601280F391FE5
:1001D0003093460120934501409101015091020165
:1001E00081E02417350708F080E020913B01309131
:1001F0003C014091470150914801240F351F309335
:100200004801209347014091030150910401982F28
:100210002417350718F491E0980F826020913D0172
:1002200030913E014091490150914A01240F351F00
:1002300030934A01209349014091050150910601F4
:100240002417350710F484609F5F20913F0130919F
:10025000400140914B0150914C01240F351F3093C8
:100260004C0120934B014091070150910801241744
:10027000350710F488609F5F209141013091420161
:1002800040914D0150914E01240F351F30934E0186
:1002900020934D014091090150910A01241735071F
:1002A00010F480619F5F209143013091440140919F
:1002B0004F0150915001240F351F3093500120936E
:1002C0004F0140910B0150910C012417350710F498
:1002D00080629F5F20913701309138014AE2949FFC
:1002E000200D311D1124A9014427452B09F08064FC
:1002F000332730933801209337012A988EBD0DB4EF
:1003000007FEFDCF2A9A9F918F915F914F913F9168
:100310002F910F900FBE0F901F901895259A239A3A
:100320002498229A2A9A229A2A9A8DB58E7F8DBD78
:100330008DB581608DBD80E58CBD0895F8940E94D7
:100340008E01EAE7F0E080818760808380818068A9
:10035000808310921F018091000180937C00808136
:100360008064808387E080931E0180E68093000193
:10037000289A5A9A5B9A8AB1806F8AB981E591E08E
:100380009093530180935201E1ECF0E0108286E0FB
:100390008093C2008FE190E09093C5008093C400E9
:1003A00088E1808382E08093B00091E09093B10077
:1003B0009FEF9093B300809370007894089584B772
:1003C00014BE80916000886180936000109260008C
:1003D0000E949E01ABE2B1E0E1E3F1E08CE38193A6
:1003E0001D9231E0E733F307C9F780917A0086FD6B
:1003F000FCCF80911F019091780020917900E82F27
:10040000F0E0EE0FFF1FE25FFE4F322F292F318306
:1004100020838F5F80931F0190911E01891710F038
:1004200010921F0180911F01877090910001892B0C
:1004300080937C0080917A00806480937A0041E10F
:100440008091C00087FF74C0415009F471C0909141
:10045000C600983FA8F797FF05C09093220110921D
:100460002001EECF80912201882351F320912001B9
:10047000211109C090932101807E803C09F381E025
:1004800080932001DDCF382F307F10922001282F5C
:100490002F70303909F0E7C0992309F4CDC021113C
:1004A000CFCF80912B018823D1F080912C0121E0C6
:1004B0008823A9F080912D0122E0882381F03091DA
:1004C0002A01832F63E00E944303292F832F90E0AA
:1004D000019663E070E00E944F0380932A01822F0F
:1004E00090E0FC01EF5CFE4F209121012083FC0194
:1004F000E55DFE4F21E02083880F991FFC01ED5D33
:10050000FE4F84EF91E0918380839ACF8B3709F07F
:1005100097CF911195CF10922B0110922C01109230
:100520002D0110922E0110922F011092300188CFD0
:1005300080912901A0E0B0E8E2EC8E9FA019B109FA
:100540001124C1E3D1E00BE211E050E040E0F801FA
:1005500091918F01F8948991E82F87FDE0E0EE0FEB
:10056000FF0BE859FF4F25913491BA01660F771FB1
:10057000FB01E75CFE4F318320839A012D5F3F4FE3
:10058000E4EFE80FE7FDE0E0EE0FFF0BE859FF4F67
:10059000E590F490220F331FF901E75CFE4FF182E2
:1005A000E082992309F443C0CD016F5F7E4FFB01C8
:1005B000918380832F5F3E4FF901918380837894EC
:1005C0004F5F5F4F4330510509F0C1CF8091230148
:1005D00090912401009771F10197909324018093E9
:1005E000230188E020912501309126012115310554
:1005F00039F0215031093093260120932501846080
:1006000020912701309128012115310539F0215021
:100610003109309328012093270182602BB1F0E14A
:100620008F9FC00111242F70822B8BB9DECE90E0FA
:1006300080E0BBCF80E0D6CF80912101A1E3B1E083
:10064000EBE2F1E02111FCCE9191992331F09C91E4
:10065000891303C0EF0121971882119691E0EE32C1
:10066000F90791F7EDCE303839F3303B09F0E8CE99
:1006700080912101813009F049CF90932901E0CE8A
:10068000F8940C947703991B79E004C0991F96178E
:1006900008F0961B881F7A95C9F78095089597FBF7
:1006A000072E16F4009407D077FD09D00E9463034B
:1006B00007FC05D03EF4909581959F4F0895709565
:1006C00061957F4F0895AA1BBB1B51E107C0AA1F6C
:1006D000BB1FA617B70710F0A61BB70B881F991FE3
:1006E0005A95A9F780959095BC01CD010895F8948D
:0206F000FFCF3A
:0E06F2004000800080008000800080008000BA
:00000001FF
