:100000000C94B4000C94D1000C94D1000C94D10049
:100010000C94D1000C94D1000C94D1000C94F600F7
:100020000C94D1000C94D1000C94D1000C94D1000C
:100030000C94D1000C94D1000C94D1000C94D100FC
:100040000C94D1000C94D1000C94D1000C94D100EC
:100050000C94D1000C94D1000C94D1000C94D100DC
:100060000C94D1000C94D100090009000A000A0088
:100070000B000B000C000D000E000E000F00100016
:1000800011001200130014001600170018001A00C7
:100090001B001D001F002000220024002600290054
:1000A0002B002E003000330036003A003D004100A6
:1000B000450049004D00520056005C006100670099
:1000C0006D0073007A008100890091009A00A300FE
:1000D000AD00B700C200CE00DA00E700F400030173
:1000E00012012301340146015A016E0184019B0172
:1000F000B301CD01E90106022502450268028C0226
:10010000B302DC020803360367039B03D2030C042B
:1001100049048B04D00419056705B90510066C065F
:10012000CE063507A3071708930815099F09320A59
:10013000CD0A720B200CD80C9C0D6B0E460F2F10A5
:1001400025112A123F1364149A15E3163F18B119AA
:10015000381BD61C8D1E5E204B2255247E26C828B7
:10016000342BC62D7F30613311241FBECFEFD8E072
:10017000DEBFCDBF11E0A0E0B1E0E8E8F6E002C0EC
:1001800005900D92AE30B107D9F721E0AEE0B1E0B5
:1001900001C01D92AE34B207E1F70E9402020C9436
:1001A0000B030C940000382F681B21E0260FE82F6A
:1001B000F0E0EB5DFE4F90E0921740F481918111E9
:1001C00003C0390F832F08959F5FF6CF409124011C
:1001D000842F622F0E940E03390F842F90E0019626
:1001E00070E00E941A0380932401ECCF1F920F92BB
:1001F0000FB60F9211242F933F934F935F938F93DA
:100200009F93209133013091340180913F0190916F
:100210004001280F391F3093400120933F01409146
:1002200001015091020181E02417350708F080E0B8
:1002300020913501309136014091410150914201A8
:10024000240F351F30934201209341014091030157
:1002500050910401982F2417350718F491E0980F56
:1002600082602091370130913801409143015091D3
:100270004401240F351F30934401209343014091E2
:100280000501509106012417350710F484609F5F23
:100290002091390130913A01409145015091460138
:1002A000240F351F309346012093450140910701EB
:1002B000509108012417350710F488609F5F209142
:1002C0003B0130913C014091470150914801240F7E
:1002D000351F309348012093470140910901509107
:1002E0000A012417350710F480619F5F20913D01BA
:1002F00030913E014091490150914A01240F351F30
:1003000030934A012093490140910B0150910C0117
:100310002417350710F480629F5F209131013091DE
:1003200032014AE2949F200D311D1124A901442776
:10033000452B09F08064332730933201209331013B
:100340002A988EBD0DB407FEFDCF2A9A9F918F91FA
:100350005F914F913F912F910F900FBE0F901F9083
:100360001895259A239A2498229A2A9A229A2A9AA8
:100370008DB58E7F8DBD8DB581608DBD80E58CBDC9
:100380000895F8940E94B101EAE7F0E08081876067
:10039000808380818068808310921F01809100019A
:1003A00080937C0080818064808387E080931E013D
:1003B00080E680930001289A5A9A5B9A8AB1806FEE
:1003C0008AB98BE491E090934D0180934C01E1EC6C
:1003D000F0E0108286E08093C2008FE190E090937D
:1003E000C5008093C40088E1808382E08093B000E0
:1003F00091E09093B1009FEF9093B30080937000D1
:100400007894089584B714BE8091600088618093C9
:100410006000109260000E94C101A5E2B1E0EBE231
:10042000F1E08CE381931D9281E0E133F807C9F795
:1004300080917A0086FDFCCF80911F019091780019
:1004400020917900E82FF0E0EE0FFF1FE25FFE4FF2
:10045000322F292F318320838F5F80931F0190914A
:100460001E01891710F010921F0180911F018770E3
:1004700090910001892B80937C0080917A008064A8
:1004800080937A0011E18091C00087FF68C011500D
:1004900009F465C09091C600983FA8F797FF05C082
:1004A0009093220110922001EECF809122018823A7
:1004B00051F320912001211109C090932101807EE8
:1004C000803C09F381E080932001DDCF282F207F3D
:1004D000109220018F70203909F090C0992309F4FF
:1004E00071C08111D0CFD091210162E080E0D03382
:1004F00010F465E083E00E94D30090E0FC01E55D2C
:10050000FE4FD0838B5D9E4F21E0EC012883BBCF53
:100510008B3709F0B8CF9111B6CF10922501109208
:1005200026011092270110922801109229011092A1
:100530002A01A9CF28E231E0ABE2B1E0E5E2F1E047
:100540009381992331F013969C911397891301C0DD
:100550001382319611962E173F0791F794CF809111
:10056000230140E050E8E2EC8E9F4019510911242C
:10057000ABE2B1E0C5E2D1E090E080E06991F894AF
:10058000ED91E7FDE0E0EE0FFF0BE859FF4F05911D
:1005900014919C01220F331FF901ED5CFE4F118372
:1005A0000083662361F0BA012F5F3E4FF90171832A
:1005B0006083789401968630910501F739CF70E019
:1005C00060E0F2CF81115FCF80912101803308F488
:1005D000B1CFABE2B1E0E5E2F1E09191992341F0D6
:1005E0009C91891305C09F0121503109E9011882AE
:1005F0001196D1E0E832FD0781F745CF203811F39D
:10060000203B09F040CF80912101813009F080CF5B
:100610009093230138CFF8940C944203991B79E00E
:1006200004C0991F961708F0961B881F7A95C9F782
:100630008095089597FB072E16F4009407D077FD58
:1006400009D00E942E0307FC05D03EF490958195B9
:100650009F4F0895709561957F4F0895AA1BBB1B0E
:1006600051E107C0AA1FBB1FA617B70710F0A61BB2
:10067000B70B881F991F5A95A9F780959095BC01D3
:08068000CD010895F894FFCFAD
:0E068800400080008000800080008000800024
:00000001FF
