:100000000C94B4000C94D1000C94D1000C94D10049
:100010000C94D1000C94D1000C94D1000C94D3001A
:100020000C94D1000C94D1000C94D1000C94D1000C
:100030000C94D1000C94D1000C94D1000C94D100FC
:100040000C94D1000C94D1000C94D1000C94D100EC
:100050000C94D1000C94D1000C94D1000C94D100DC
:100060000C94D1000C94D100090009000A000A0088
:100070000B000B000C000D000E000E000F00100016
:1000800011001200130014001600170018001A00C7
:100090001B001D001F002000220024002600290054
:1000A0002B002E003000330036003A003D004100A6
:1000B000450049004D00520056005C006100670099
:1000C0006D0073007A008100890091009A00A300FE
:1000D000AD00B700C200CE00DA00E700F400030173
:1000E00012012301340146015A016E0184019B0172
:1000F000B301CD01E90106022502450268028C0226
:10010000B302DC020803360367039B03D2030C042B
:1001100049048B04D00419056705B90510066C065F
:10012000CE063507A3071708930815099F09320A59
:10013000CD0A720B200CD80C9C0D6B0E460F2F10A5
:1001400025112A123F1364149A15E3163F18B119AA
:10015000381BD61C8D1E5E204B2255247E26C828B7
:10016000342BC62D7F30613311241FBECFEFD8E072
:10017000DEBFCDBF11E0A0E0B1E0EEE5F7E002C0E8
:1001800005900D92A431B107D9F721E0A4E1B1E0C7
:1001900001C01D92AA35B207E1F70E94DF010C945D
:1001A0006C030C9400001F920F920FB60F92112453
:1001B0002F933F934F935F938F939F9320913F0192
:1001C0003091400180914B0190914C01280F391FD3
:1001D00030934C0120934B01409101015091020159
:1001E00081E02417350708F080E02091410130912B
:1001F000420140914D0150914E01240F351F309323
:100200004E0120934D014091030150910401982F1C
:100210002417350718F491E0980F8260209143016C
:100220003091440140914F0150915001240F351FEE
:100230003093500120934F014091050150910601E8
:100240002417350710F484609F5F20914501309199
:1002500046014091510150915201240F351F3093B6
:100260005201209351014091070150910801241738
:10027000350710F488609F5F209147013091480155
:100280004091530150915401240F351F3093540174
:10029000209353014091090150910A012417350719
:1002A00010F480619F5F2091490130914A01409193
:1002B000550150915601240F351F3093560120935C
:1002C000550140910B0150910C012417350710F492
:1002D00080629F5F20913D0130913E014AE2949FF0
:1002E000200D311D1124A9014427452B09F08064FC
:1002F000332730933E0120933D012A988EBD0DB4E3
:1003000007FEFDCF2A9A9F918F915F914F913F9168
:100310002F910F900FBE0F901F901895259A239A3A
:100320002498229A2A9A229A2A9A8DB58E7F8DBD78
:100330008DB581608DBD80E58CBD0895F8940E94D7
:100340008E01EAE7F0E080818760808380818068A9
:100350008083109225018091000180937C00808130
:100360008064808387E08093240180E6809300018D
:10037000289A5A9A5B9A8AB1806F8AB987E591E088
:100380009093590180935801E1ECF0E0108286E0EF
:100390008093C2008FE190E09093C5008093C400E9
:1003A00088E1808382E08093B00091E09093B10077
:1003B0009FEF9093B3008093700078940895A4E029
:1003C000B0E0E5EEF1E00C94910384B714BE8091A7
:1003D0006000886180936000109260000E949E011E
:1003E0008DE391E0A1E3B1E0E7E3F1E02CE32193B9
:1003F0001D928E179F07D1F780917A0086FDFCCF62
:10040000809125019091780020917900E82FF0E00B
:10041000EE0FFF1FEC5EFE4F322F292F318320831A
:100420008F5F8093250190912401891710F010921D
:10043000250180912501877090910001892B80937F
:100440007C0080917A00806480937A0031E1809111
:10045000C00087FF59C0315009F456C09091C600C2
:10046000983FA8F797FF05C09093280110922601A6
:10047000EECF80912801882351F32091260121118C
:1004800009C090932701807E803C09F381E080932E
:100490002601DDCF282F207F109226018F70203972
:1004A00009F00DC1992309F4F4C0833080F690E07F
:1004B000FC01E95CFE4F209127012083FC01EF5CE9
:1004C000FE4F21E02083880F991FFC01E75DFE4F5E
:1004D00084EF91E091838083BACF8E3519F49093A5
:1004E0002F01B5CF8B3709F0B2CF9111B0CF109259
:1004F00031011092320110923301109234011092A6
:10050000350110923601A3CF8091300120E030E810
:100510006901F2EC8F9FC018D10811246DE0E62E1E
:1005200061E0F62E87E391E09A83898371E3A72E39
:1005300071E0B72E1C821B82F50121905F01F7014B
:1005400041917F0100912F01E981FA813190FA8375
:10055000E983E32D37FCE0E0EE0FFF0BE859FF4F96
:100560006590749010E09801D3010E946F03A42F4E
:10057000440FBB0B9B01AC010E9489035FE0959582
:100580008795779567955A95D1F7660E771E4B80BC
:100590005C80F3E04F0E511CE4EFE30DE7FDE0E07B
:1005A000EE0FFF0BE859FF4F859094909801D4010E
:1005B0000E946F039B01AC01F701A2810A2E000C7F
:1005C000BB0B0E9489032FE09595879577956795DA
:1005D0002A95D1F7680D791DF8948B819C81880F3D
:1005E000991FFC01E15CFE4F718260829201220F33
:1005F000331FF901E15CFE4F71836083A601211076
:1006000002C050E040E08F5F9E4FFC015183408369
:100610002F5F3E4FF9015183408378948B819C81F9
:1006200001969C838B83039709F086CF80912901E3
:1006300090912A01009759F1019790932A01809394
:10064000290188E020912B0130912C0121153105E1
:1006500039F02150310930932C0120932B01846013
:1006600020912D0130912E012115310539F02150B5
:10067000310930932E0120932D0182602BB1E0E1EE
:100680008E9FC00111242F70822B8BB9B5CE80E0D4
:10069000D9CF833008F0DBCE90E0FC01E95CFE4F5F
:1006A0004081042E000C550B2091270124171506BC
:1006B00009F0CDCE8F5C9E4FFC011082C8CE203851
:1006C00041F3203B09F0C3CE80912701813009F02E
:1006D00004CF90933001BBCEF8940C94AD03A29F4D
:1006E000B001B39FC001A39F700D811D1124911D06
:1006F000B29F700D811D1124911D08950E946F03FA
:10070000A59F900DB49F900DA49F800D911D112465
:100710000895B7FF0C947E030E947E03821B930B07
:1007200008952F923F924F925F926F927F928F9295
:100730009F92AF92BF92CF92DF92EF92FF920F9370
:100740001F93CF93DF93CDB7DEB7CA1BDB0B0FB67A
:0E075000F894DEBF0FBECDBF0994F894FFCF22
:10075E0040008000800080008000800080FF01FE4D
:04076E0002FD030085
:00000001FF
