:100000000C94B4000C94D1000C94D1000C94D10049
:100010000C94D1000C94D1000C94D1000C94D3001A
:100020000C94D1000C94D1000C94D1000C94D1000C
:100030000C94D1000C94D1000C94D1000C94D100FC
:100040000C94D1000C94D1000C94D1000C94D100EC
:100050000C94D1000C94D1000C94D1000C94D100DC
:100060000C94D1000C94D100090009000A000A0088
:100070000B000B000C000D000E000E000F00100016
:1000800011001200130014001600170018001A00C7
:100090001B001D001F002000220024002600290054
:1000A0002B002E003000330036003A003D004100A6
:1000B000450049004D00520056005C006100670099
:1000C0006D0073007A008100890091009A00A300FE
:1000D000AD00B700C200CE00DA00E700F400030173
:1000E00012012301340146015A016E0184019B0172
:1000F000B301CD01E90106022502450268028C0226
:10010000B302DC020803360367039B03D2030C042B
:1001100049048B04D00419056705B90510066C065F
:10012000CE063507A3071708930815099F09320A59
:10013000CD0A720B200CD80C9C0D6B0E460F2F10A5
:1001400025112A123F1364149A15E3163F18B119AA
:10015000381BD61C8D1E5E204B2255247E26C828B7
:10016000342BC62D7F30613311241FBECFEFD8E072
:10017000DEBFCDBF11E0A0E0B1E0E8EEF6E002C0E6
:1001800005900D92A431B107D9F721E0A4E1B1E0C7
:1001900001C01D92A435B207E1F70E94DF010C9463
:1001A00031030C9400001F920F920FB60F9211248E
:1001B0002F933F934F935F938F939F932091390198
:1001C00030913A018091450190914601280F391FE5
:1001D0003093460120934501409101015091020165
:1001E00081E02417350708F080E020913B01309131
:1001F0003C014091470150914801240F351F309335
:100200004801209347014091030150910401982F28
:100210002417350718F491E0980F826020913D0172
:1002200030913E014091490150914A01240F351F00
:1002300030934A01209349014091050150910601F4
:100240002417350710F484609F5F20913F0130919F
:10025000400140914B0150914C01240F351F3093C8
:100260004C0120934B014091070150910801241744
:10027000350710F488609F5F209141013091420161
:1002800040914D0150914E01240F351F30934E0186
:1002900020934D014091090150910A01241735071F
:1002A00010F480619F5F209143013091440140919F
:1002B0004F0150915001240F351F3093500120936E
:1002C0004F0140910B0150910C012417350710F498
:1002D00080629F5F20913701309138014AE2949FFC
:1002E000200D311D1124A9014427452B09F08064FC
:1002F000332730933801209337012A988EBD0DB4EF
:1003000007FEFDCF2A9A9F918F915F914F913F9168
:100310002F910F900FBE0F901F901895259A239A3A
:100320002498229A2A9A229A2A9A8DB58E7F8DBD78
:100330008DB581608DBD80E58CBD0895F8940E94D7
:100340008E01EAE7F0E080818760808380818068A9
:100350008083109225018091000180937C00808130
:100360008064808387E08093240180E6809300018D
:10037000289A5A9A5B9A8AB1806F8AB981E591E08E
:100380009093530180935201E1ECF0E0108286E0FB
:100390008093C2008FE190E09093C5008093C400E9
:1003A00088E1808382E08093B00091E09093B10077
:1003B0009FEF9093B3008093700078940895A4E029
:1003C000B0E0E5EEF1E00C94560384B714BE8091E2
:1003D0006000886180936000109260000E949E011E
:1003E00087E391E0ABE2B1E0E1E3F1E02CE32193BC
:1003F0001D928E179F07D1F780917A0086FDFCCF62
:10040000809125019091780020917900E82FF0E00B
:10041000EE0FFF1FEC5EFE4F322F292F318320831A
:100420008F5F8093250190912401891710F010921D
:10043000250180912501877090910001892B80937F
:100440007C0080917A00806480937A0031E1809111
:10045000C00087FF50C0315009F44DC09091C600D4
:10046000983FA8F797FF05C09093280110922601A6
:10047000EECF80912801882351F32091260121118C
:1004800009C090932701807E803C09F381E080932E
:100490002601DDCF282F207F109226018F70203972
:1004A00009F0D2C0992309F4B9C0833080F690E0F6
:1004B000FC01EF5CFE4F209127012083855D9E4F5C
:1004C00021E0FC012083C3CF8E3519F490932901DC
:1004D000BECF8B3709F0BBCF9111B9CF10922B0152
:1004E00010922C0110922D0110922E0110922F01CA
:1004F00010923001ACCF80912A0120E030E86901F0
:10050000F2EC8F9FC018D10811246DE0E62E61E057
:10051000F62E81E391E09A8389837BE2A72E71E036
:10052000B72E1C821B82F50121905F01F7014191DA
:100530007F0100912901E981FA813190FA83E983F1
:10054000E32D37FCE0E0EE0FFF0BE859FF4F65901D
:10055000749010E09801D3010E943403A42F440F3B
:10056000BB0B9B01AC010E944E035FE09595879504
:10057000779567955A95D1F7660E771E4B805C800C
:10058000F3E04F0E511CE4EFE30DE7FDE0E0EE0F6A
:10059000FF0BE859FF4F859094909801D4010E9479
:1005A00034039B01AC01F701A2810A2E000CBB0BA6
:1005B0000E944E032FE095958795779567952A952C
:1005C000D1F7680D791DF8948B819C81880F991F54
:1005D000FC01E75CFE4F718260829201220F331FA3
:1005E000F901E75CFE4F71836083A601211002C010
:1005F00050E040E08F5F9E4FFC01518340832F5FAE
:100600003E4FF9015183408378948B819C81019600
:100610009C838B83039709F086CFEECE833008F05E
:1006200016CF90E0FC01EF5CFE4F4081042E000CE1
:10063000550B209127012417150609F008CF855D79
:100640009E4FFC01108203CF203841F3203B09F07C
:10065000FECE80912701813009F036CF90932A0198
:10066000F6CEF8940C947203A29FB001B39FC00120
:10067000A39F700D811D1124911DB29F700D811DCE
:100680001124911D08950E943403A59F900DB49FDD
:10069000900DA49F800D911D11240895B7FF0C9417
:1006A00043030E944303821B930B08952F923F92B2
:1006B0004F925F926F927F928F929F92AF92BF9272
:1006C000CF92DF92EF92FF920F931F93CF93DF931E
:1006D000CDB7DEB7CA1BDB0B0FB6F894DEBF0FBE7B
:0806E000CDBF0994F894FFCF8F
:1006E80040008000800080008000800080FF01FEC4
:0406F80002FD0300FC
:00000001FF
