:100000000C94C0000C94DD000C94DD000C94DD0019
:100010000C94DD000C94DD000C94DD000C940301C5
:100020000C94DD000C94DD000C94DD000C94DD00DC
:100030000C94DD000C94DD000C94DD000C94DD00CC
:100040000C94DD000C94DD000C94DD000C94DD00BC
:100050000C94DD000C94DD000C94DD000C94DD00AC
:100060000C94DD000C94DD0000000000070C00047F
:100070000700030700050700040B00030A00050A38
:10008000090009000A000A000B000B000C000D001B
:100090000E000E000F0010001100120013001400DB
:1000A0001600170018001A001B001D001F0020007A
:1000B00022002400260029002B002E0030003300EF
:1000C00036003A003D004100450049004D00520015
:1000D00056005C00610067006D0073007A008100CB
:1000E000890091009A00A300AD00B700C200CE00C5
:1000F000DA00E700F4000301120123013401460194
:100100005A016E0184019B01B301CD01E901060290
:100110002502450268028C02B302DC0208033603A2
:1001200067039B03D2030C0449048B04D004190514
:100130006705B90510066C06CE063507A307170834
:10014000930815099F09320ACD0A720B200CD80CAE
:100150009C0D6B0E460F2F1025112A123F136414AD
:100160009A15E3163F18B119381BD61C8D1E5E2058
:100170004B2255247E26C828342BC62D7F30613370
:1001800011241FBECFEFD8E0DEBFCDBF11E0A0E04D
:10019000B1E0E0EEF7E002C005900D92A831B107A2
:1001A000D9F721E0A8E1B1E001C01D92A935B2075D
:1001B000E1F70E940F020C94AD030C940000209113
:1001C0002D01EEE2F1E090E02917E1F031913813D2
:1001D00017C0492F50E0BA016F5F7F4F26171706EF
:1001E00059F054F0625D7E4FFB018081425D5E4FAD
:1001F000FA0180839F5FEDCF215020932D01089558
:100200009F5FE2CF08951F920F920FB60F921124B5
:100210002F933F934F935F938F939F9320913E0132
:1002200030913F0180914A0190914B01280F391F75
:1002300030934B0120934A014091020150910301F8
:1002400081E02417350708F080E0209140013091CB
:10025000410140914C0150914D01240F351F3093C5
:100260004D0120934C014091040150910501982FBC
:100270002417350718F491E0980F8260209142010D
:100280003091430140914E0150914F01240F351F91
:1002900030934F0120934E01409106015091070188
:1002A0002417350710F484609F5F2091440130913A
:1002B00045014091500150915101240F351F309359
:1002C00051012093500140910801509109012417D8
:1002D000350710F488609F5F2091460130914701F7
:1002E0004091520150915301240F351F3093530117
:1002F0002093520140910A0150910B0124173507B8
:1003000010F480619F5F2091480130914901409134
:10031000540150915501240F351F309355012093FE
:10032000540140910C0150910D012417350710F430
:1003300080629F5F20913C0130913D014AE2949F91
:10034000200D311D1124A9014427452B09F080649B
:10035000332730933D0120933C012A988EBD0DB484
:1003600007FEFDCF2A9A9F918F915F914F913F9108
:100370002F910F900FBE0F901F901895259A239ADA
:100380002498229A2A9A229A2A9A8DB58E7F8DBD18
:100390008DB581608DBD80E58CBD0895F8940E9477
:1003A000BE01EAE7F0E08081876080838081806819
:1003B0008083109229018091000180937C008081CC
:1003C0008064808387E08093280180E68093000129
:1003D000289A5A9A5B9A8AB1806F8AB986E591E029
:1003E0009093580180935701E1ECF0E0108286E091
:1003F0008093C2008FE190E09093C5008093C40089
:1004000088E1808382E08093B00091E09093B10016
:100410009FEF9093B3008093700078940895A5E0C7
:10042000B0E0E5E1F2E00C94D20384B714BE809111
:100430006000886180936000109260000E94CE018D
:1004400080917A0086FDFCCF8091290190917800FF
:1004500020917900E82FF0E0EE0FFF1FE85EFE4FDD
:10046000322F292F318320838F5F80932901909130
:100470002801891710F010922901809129018770B5
:1004800090910001892B80937C0080917A00806498
:1004900080937A0031E139838091C00087FF50C09A
:1004A000498141504983442309F44AC09091C600D0
:1004B000983F90F797FF05C090932C0110922A0166
:1004C000EBCF80912C01882339F320912A0121114F
:1004D00009C090932B01807E803CF1F281E08093F3
:1004E0002A01DACF282F207F10922A018F7020391D
:1004F00009F024C1992309F41AC18111CDCF80914B
:100500002B018B830E94DF00E0912D01E83048F43D
:1005100081E08E0F80932D01F0E0E25DFE4F9B8124
:10052000908384EF91E0909337018093360190930C
:1005300039018093380190933B0180933A01ACCF0D
:1005400060902D0150900101662039F0E62DF0E019
:10055000E35DFE4F508050920101A0901D01B12C2F
:1005600022242A94312C2A183B0805E0359427943C
:100570000A95E1F7709019017094872DA0E87A161A
:1005800008F480E880588B83412C222011F0B4EFCE
:100590004B2EC101880F991F280E391EAEE0CA2EBE
:1005A000A1E0DA2EE4E1F1E0FA83E9831D821C8206
:1005B000F101E859FF4F8C819D81E80FF91F94905C
:1005C000950CD6014D916D01E92D97FCE0E0EE0F01
:1005D000FF0BE058FF4FE590F490BB812B2F30E0EC
:1005E000D7010E94B003A42F440FBB0B9B01AC01A9
:1005F0000E94CA03EFE09595879577956795EA95F0
:10060000D1F7E60EF71E0C811D810D5F1F4FE42D03
:10061000E90DE7FDE0E0EE0FFF0BE058FF4F85909E
:100620009490272D30E0D4010E94B0039B01AC01CF
:10063000F601A2810A2E000CBB0B0E94CA032FE018
:1006400095958795779567952A95D1F7680D791DCA
:10065000A981BA81ED91BA83A983F0E0EE0FFF1F63
:10066000E85EFE4F2181F8948C819D81880F991F4F
:10067000FC01E25CFE4FF182E082000F111FF801E5
:10068000E25CFE4F71836083662009F44BC02095C5
:10069000B2EC2B9F90011124315E8E5F9E4FFC01C6
:1006A000318320830E5F1E4FD80111963C932E9309
:1006B0007894EC81FD813196FD83EC83339709F0CA
:1006C00077CF8091360190913701009771F10197B2
:1006D000909337018093360188E020913801309162
:1006E00039012115310539F0215031093093390193
:1006F00020933801846020913A0130913B0121150B
:10070000310539F02150310930933B0120933A01F2
:1007100082602BB1F0E18F9FC00111242F70822BDA
:100720008BB98ECE30E020E0B8CF80E0D6CF8111FB
:10073000B3CE80912B010E94DF00AECE2038B9F3FA
:10074000203B09F0A9CE80912B018B3709F0A4CE74
:100750009111A2CE10922D019FCEF8940C94EE032D
:10076000A29FB001B39FC001A39F700D811D1124F2
:10077000911DB29F700D811D1124911D08950E943D
:10078000B003A59F900DB49F900DA49F800D911D67
:1007900011240895B7FF0C94BF030E94BF03821B6E
:1007A000930B08952F923F924F925F926F927F9298
:1007B0008F929F92AF92BF92CF92DF92EF92FF9271
:1007C0000F931F93CF93DF93CDB7DEB7CA1BDB0B1D
:1007D0000FB6F894DEBF0FBECDBF0994F894FFCFDB
:1007E000403C008000800080008000800080FF018D
:0807F000FE02FD0303040500F5
:00000001FF
