:100000000C94B4000C94D1000C94D1000C94D10049
:100010000C94D1000C94D1000C94D1000C94D3001A
:100020000C94D1000C94D1000C94D1000C94D1000C
:100030000C94D1000C94D1000C94D1000C94D100FC
:100040000C94D1000C94D1000C94D1000C94D100EC
:100050000C94D1000C94D1000C94D1000C94D100DC
:100060000C94D1000C94D100090009000A000A0088
:100070000B000B000C000D000E000E000F00100016
:1000800011001200130014001600170018001A00C7
:100090001B001D001F002000220024002600290054
:1000A0002B002E003000330036003A003D004100A6
:1000B000450049004D00520056005C006100670099
:1000C0006D0073007A008100890091009A00A300FE
:1000D000AD00B700C200CE00DA00E700F400030173
:1000E00012012301340146015A016E0184019B0172
:1000F000B301CD01E90106022502450268028C0226
:10010000B302DC020803360367039B03D2030C042B
:1001100049048B04D00419056705B90510066C065F
:10012000CE063507A3071708930815099F09320A59
:10013000CD0A720B200CD80C9C0D6B0E460F2F10A5
:1001400025112A123F1364149A15E3163F18B119AA
:10015000381BD61C8D1E5E204B2255247E26C828B7
:10016000342BC62D7F30613311241FBECFEFD8E072
:10017000DEBFCDBF11E0A0E0B1E0E4E3F6E002C0F5
:1001800005900D92AE30B107D9F721E0AEE0B1E0B5
:1001900001C01D92AE34B207E1F70E94DF010C945A
:1001A000E1020C9400001F920F920FB60F921124DF
:1001B0002F933F934F935F938F939F93209133019E
:1001C0003091340180913F0190914001280F391FF7
:1001D0003093400120933F01409101015091020171
:1001E00081E02417350708F080E020913501309137
:1001F00036014091410150914201240F351F309347
:100200004201209341014091030150910401982F34
:100210002417350718F491E0980F82602091370178
:10022000309138014091430150914401240F351F12
:100230003093440120934301409105015091060100
:100240002417350710F484609F5F209139013091A5
:100250003A014091450150914601240F351F3093DA
:100260004601209345014091070150910801241750
:10027000350710F488609F5F20913B0130913C016D
:100280004091470150914801240F351F3093480198
:10029000209347014091090150910A012417350725
:1002A00010F480619F5F20913D0130913E014091AB
:1002B000490150914A01240F351F30934A01209380
:1002C000490140910B0150910C012417350710F49E
:1002D00080629F5F20913101309132014AE2949F08
:1002E000200D311D1124A9014427452B09F08064FC
:1002F000332730933201209331012A988EBD0DB4FB
:1003000007FEFDCF2A9A9F918F915F914F913F9168
:100310002F910F900FBE0F901F901895259A239A3A
:100320002498229A2A9A229A2A9A8DB58E7F8DBD78
:100330008DB581608DBD80E58CBD0895F8940E94D7
:100340008E01EAE7F0E080818760808380818068A9
:10035000808310921F018091000180937C00808136
:100360008064808387E080931E0180E68093000193
:10037000289A5A9A5B9A8AB1806F8AB98BE491E085
:1003800090934D0180934C01E1ECF0E0108286E007
:100390008093C2008FE190E09093C5008093C400E9
:1003A00088E1808382E08093B00091E09093B10077
:1003B0009FEF9093B300809370007894089584B772
:1003C00014BE80916000886180936000109260008C
:1003D0000E949E01A5E2B1E0EBE2F1E08CE38193A3
:1003E0001D9281E0E133F807C9F780917A0086FD1C
:1003F000FCCF80911F019091780020917900E82F27
:10040000F0E0EE0FFF1FE25FFE4F322F292F318306
:1004100020838F5F80931F0190911E01891710F038
:1004200010921F0180911F01877090910001892B0C
:1004300080937C0080917A00806480937A0041E10F
:100440008091C00087FF65C0415009F462C080916F
:10045000C600883FA8F787FF05C08093220110924D
:100460002001EECF60912201662351F3909120018B
:10047000911109C080932101607E603C09F381E005
:1004800080932001DDCF962F907F10922001262FA0
:100490002F70903909F088C0882309F46DC0E5E217
:1004A000F1E02111CDCF8191882399F02F5F263083
:1004B000D1F730912401832F622F0E94E402292F6B
:1004C000832F90E0019666E070E00E94F002809336
:1004D0002401622F70E0FB01E55DFE4F8091210158
:1004E00080836B5D7E4F81E0FB018083A9CF9B37CA
:1004F00009F0A6CF8111A4CF1092250110922601F8
:1005000010922701109228011092290110922A01BD
:1005100097CF8091230140E050E8F2EC8F9F401983
:1005200051091124CBE2D1E0A5E2B1E090E080E0F6
:100530006D91F894E991E7FDE0E0EE0FFF0BE859CB
:10054000FF4F059114919C01220F331FF901ED5CBF
:10055000FE4F11830083662361F0BA012F5F3E4F87
:10056000F90171836083789401968630910501F7D3
:100570003CCF70E060E0F2CF211162CF20912101E9
:100580008BE291E0ABE2B1E0E5E2F1E031913323BF
:1005900031F03C91231303C0EF012197188211968B
:1005A0008E179F0799F74CCF903831F3903B09F0A5
:1005B00047CF90912101913009F099CF8093230189
:1005C0003FCFF8940C941803991B79E004C0991F4D
:1005D000961708F0961B881F7A95C9F7809508959D
:1005E00097FB072E16F4009407D077FD09D00E94E0
:1005F000040307FC05D03EF4909581959F4F089524
:10060000709561957F4F0895AA1BBB1B51E107C0F0
:10061000AA1FBB1FA617B70710F0A61BB70B881F92
:10062000991F5A95A9F780959095BC01CD01089521
:04063000F894FFCF6C
:0E063400400080008000800080008000800078
:00000001FF
